{
    "contractName": "UsersContract",
    "abi": [
        {
            "constant": true,
            "inputs": [
                {
                    "internalType": "address",
                    "name": "addr",
                    "type": "address"
                }
            ],
            "name": "getAdress",
            "outputs": [
                {
                    "internalType": "string",
                    "name": "",
                    "type": "string"
                },
                {
                    "internalType": "string",
                    "name": "",
                    "type": "string"
                }
            ],
            "payable": false,
            "stateMutability": "view",
            "type": "function"
        },
        {
            "constant": false,
            "inputs": [
                {
                    "internalType": "string",
                    "name": "name",
                    "type": "string"
                },
                {
                    "internalType": "string",
                    "name": "lastName",
                    "type": "string"
                }
            ],
            "name": "join",
            "outputs": [],
            "payable": false,
            "stateMutability": "nonpayable",
            "type": "function"
        },
        {
            "constant": true,
            "inputs": [],
            "name": "totalUsers",
            "outputs": [
                {
                    "internalType": "uint256",
                    "name": "",
                    "type": "uint256"
                }
            ],
            "payable": false,
            "stateMutability": "view",
            "type": "function"
        }
    ],
    "bytecode": "608060405234801561001057600080fd5b50610679806100206000396000f3fe608060405234801561001057600080fd5b50600436106100415760003560e01c806329803b21146100465780634d4f88a914610175578063bff1f9e114610279575b600080fd5b6101736004803603604081101561005c57600080fd5b81019060208101813564010000000081111561007757600080fd5b82018360208201111561008957600080fd5b803590602001918460018302840111640100000000831117156100ab57600080fd5b91908080601f01602080910402602001604051908101604052809392919081815260200183838082843760009201919091525092959493602081019350359150506401000000008111156100fe57600080fd5b82018360208201111561011057600080fd5b8035906020019184600183028401116401000000008311171561013257600080fd5b91908080601f016020809104026020016040519081016040528093929190818152602001838380828437600092019190915250929550610293945050505050565b005b61019b6004803603602081101561018b57600080fd5b50356001600160a01b0316610370565b604051808060200180602001838103835285818151815260200191508051906020019080838360005b838110156101dc5781810151838201526020016101c4565b50505050905090810190601f1680156102095780820380516001836020036101000a031916815260200191505b50838103825284518152845160209182019186019080838360005b8381101561023c578181015183820152602001610224565b50505050905090810190601f1680156102695780820380516001836020036101000a031916815260200191505b5094505050505060405180910390f35b610281610523565b60408051918252519081900360200190f35b61029c3361052a565b156102d85760405162461bcd60e51b81526004018080602001828103825260258152602001806105fb6025913960400191505060405180910390fd5b33600090815260208181526040909120835190916102fa918391860190610548565b5081516103109060018301906020850190610548565b50503360008181526001602081905260408220805460ff1916821790556002805491820181559091527f405787fa12a823e0f2b7631cc41b3ba8828b3321ca811111fa75cd3aa3bb5ace0180546001600160a01b03191690911790555050565b60608061037c3361052a565b6103b75760405162461bcd60e51b81526004018080602001828103825260258152602001806106206025913960400191505060405180910390fd5b6103bf6105c6565b6001600160a01b038416600090815260208181526040918290208251815460026001821615610100026000190190911604601f81018490049093028101606090810185529381018381529093919284928491908401828280156104635780601f1061043857610100808354040283529160200191610463565b820191906000526020600020905b81548152906001019060200180831161044657829003601f168201915b50505050508152602001600182018054600181600116156101000203166002900480601f0160208091040260200160405190810160405280929190818152602001828054600181600116156101000203166002900480156105055780601f106104da57610100808354040283529160200191610505565b820191906000526020600020905b8154815290600101906020018083116104e857829003601f168201915b50505091909252505081516020909201519194509092505050915091565b6002545b90565b6001600160a01b031660009081526001602052604090205460ff1690565b828054600181600116156101000203166002900490600052602060002090601f016020900481019282601f1061058957805160ff19168380011785556105b6565b828001600101855582156105b6579182015b828111156105b657825182559160200191906001019061059b565b506105c29291506105e0565b5090565b604051806040016040528060608152602001606081525090565b61052791905b808211156105c257600081556001016105e656fe4572726f72212c20456c207573756172696f2079612065737461207265676973747261646f4572726f72212c20456c207573756172696f206e6f2065737461207265676973747261646fa265627a7a72315820450cccf0e056a692d6320c56009b133542e08363c935cd56faf661bb721e027a64736f6c634300050c0032",
    "sourcePath": "c:/Users/dpastori/Documents/cursos/blockchain/curso-ethereum/tema2/compile-and-deploy/contracts/UsersContract.sol",
    "compiler": {
        "name": "solc",
        "version": "0.5.12+commit.7709ece9"
    },
    "functionHashes": {
        "getAdress(address)": "4d4f88a9",
        "join(string,string)": "29803b21",
        "totalUsers()": "bff1f9e1"
    },
    "gasEstimates": {
        "creation": {
            "codeDepositCost": "331400",
            "executionCost": "368",
            "totalCost": "331768"
        },
        "external": {
            "getAdress(address)": "infinite",
            "join(string,string)": "infinite",
            "totalUsers()": "421"
        },
        "internal": {
            "userJoined(address)": "311"
        }
    }
}