{
  "contractName": "UsersContract",
  "abi": [
    {
      "anonymous": false,
      "inputs": [
        {
          "indexed": false,
          "name": "",
          "type": "address"
        },
        {
          "indexed": false,
          "name": "",
          "type": "string"
        }
      ],
      "name": "onUserJoin",
      "type": "event"
    },
    {
      "constant": false,
      "inputs": [
        {
          "name": "name",
          "type": "string"
        },
        {
          "name": "lastName",
          "type": "string"
        }
      ],
      "name": "join",
      "outputs": [],
      "payable": false,
      "stateMutability": "nonpayable",
      "type": "function"
    },
    {
      "constant": true,
      "inputs": [
        {
          "name": "addr",
          "type": "address"
        }
      ],
      "name": "getAdress",
      "outputs": [
        {
          "name": "",
          "type": "string"
        },
        {
          "name": "",
          "type": "string"
        }
      ],
      "payable": false,
      "stateMutability": "view",
      "type": "function"
    },
    {
      "constant": true,
      "inputs": [],
      "name": "totalUsers",
      "outputs": [
        {
          "name": "",
          "type": "uint256"
        }
      ],
      "payable": false,
      "stateMutability": "view",
      "type": "function"
    }
  ],
  "bytecode": "0x608060405234801561001057600080fd5b506109d3806100206000396000f3fe608060405234801561001057600080fd5b50600436106100415760003560e01c806329803b21146100465780634d4f88a914610198578063bff1f9e1146102c1575b600080fd5b6101966004803603604081101561005c57600080fd5b810190808035906020019064010000000081111561007957600080fd5b82018360208201111561008b57600080fd5b803590602001918460018302840111640100000000831117156100ad57600080fd5b91908080601f016020809104026020016040519081016040528093929190818152602001838380828437600081840152601f19601f8201169050808301925050505050505091929192908035906020019064010000000081111561011057600080fd5b82018360208201111561012257600080fd5b8035906020019184600183028401116401000000008311171561014457600080fd5b91908080601f016020809104026020016040519081016040528093929190818152602001838380828437600081840152601f19601f8201169050808301925050505050505091929192905050506102df565b005b6101da600480360360208110156101ae57600080fd5b81019080803573ffffffffffffffffffffffffffffffffffffffff169060200190929190505050610629565b604051808060200180602001838103835285818151815260200191508051906020019080838360005b8381101561021e578082015181840152602081019050610203565b50505050905090810190601f16801561024b5780820380516001836020036101000a031916815260200191505b50838103825284818151815260200191508051906020019080838360005b83811015610284578082015181840152602081019050610269565b50505050905090810190601f1680156102b15780820380516001836020036101000a031916815260200191505b5094505050505060405180910390f35b6102c961083b565b6040518082815260200191505060405180910390f35b6102e833610848565b1561033e576040517f08c379a000000000000000000000000000000000000000000000000000000000815260040180806020018281038252602581526020018061095e6025913960400191505060405180910390fd5b60008060003373ffffffffffffffffffffffffffffffffffffffff1673ffffffffffffffffffffffffffffffffffffffff16815260200190815260200160002090508281600001908051906020019061039892919061089e565b50818160010190805190602001906103b192919061089e565b5060018060003373ffffffffffffffffffffffffffffffffffffffff1673ffffffffffffffffffffffffffffffffffffffff16815260200190815260200160002060006101000a81548160ff02191690831515021790555060023390806001815401808255809150509060018203906000526020600020016000909192909190916101000a81548173ffffffffffffffffffffffffffffffffffffffff021916908373ffffffffffffffffffffffffffffffffffffffff160217905550507fe09b23d908522dc53b9c99fdfa8f3f6ef1da413f0ae260dd33d3f87675cebd103384846040516020018083805190602001908083835b602083106104c957805182526020820191506020810190506020830392506104a6565b6001836020036101000a038019825116818451168082178552505050505050905001807f200000000000000000000000000000000000000000000000000000000000000081525060010182805190602001908083835b60208310610542578051825260208201915060208101905060208303925061051f565b6001836020036101000a03801982511681845116808217855250505050505090500192505050604051602081830303815290604052604051808373ffffffffffffffffffffffffffffffffffffffff1673ffffffffffffffffffffffffffffffffffffffff16815260200180602001828103825283818151815260200191508051906020019080838360005b838110156105e95780820151818401526020810190506105ce565b50505050905090810190601f1680156106165780820380516001836020036101000a031916815260200191505b50935050505060405180910390a1505050565b60608061063533610848565b61068a576040517f08c379a00000000000000000000000000000000000000000000000000000000081526004018080602001828103825260258152602001806109836025913960400191505060405180910390fd5b61069261091e565b6000808573ffffffffffffffffffffffffffffffffffffffff1673ffffffffffffffffffffffffffffffffffffffff168152602001908152602001600020604051806040016040529081600082018054600181600116156101000203166002900480601f0160208091040260200160405190810160405280929190818152602001828054600181600116156101000203166002900480156107745780601f1061074957610100808354040283529160200191610774565b820191906000526020600020905b81548152906001019060200180831161075757829003601f168201915b50505050508152602001600182018054600181600116156101000203166002900480601f0160208091040260200160405190810160405280929190818152602001828054600181600116156101000203166002900480156108165780601f106107eb57610100808354040283529160200191610816565b820191906000526020600020905b8154815290600101906020018083116107f957829003601f168201915b5050505050815250509050806000015181602001518191508090509250925050915091565b6000600280549050905090565b6000600160008373ffffffffffffffffffffffffffffffffffffffff1673ffffffffffffffffffffffffffffffffffffffff16815260200190815260200160002060009054906101000a900460ff169050919050565b828054600181600116156101000203166002900490600052602060002090601f016020900481019282601f106108df57805160ff191683800117855561090d565b8280016001018555821561090d579182015b8281111561090c5782518255916020019190600101906108f1565b5b50905061091a9190610938565b5090565b604051806040016040528060608152602001606081525090565b61095a91905b8082111561095657600081600090555060010161093e565b5090565b9056fe4572726f72212c20456c207573756172696f2079612065737461207265676973747261646f4572726f72212c20456c207573756172696f206e6f2065737461207265676973747261646fa165627a7a72305820cd665dca163438a51582939daea56e3b4040ac7e8a33ce9f79181bf8f31c3d2b0029",
  "source": "pragma solidity >=0.5.2 <0.6.0;\r\n\r\ncontract UsersContract{\r\n    // se genera la entidad usuario (estructura)\r\n    struct User{\r\n        string name;\r\n        string lastName;\r\n    }\r\n\r\n    event onUserJoin(address,string);\r\n\r\n    // permite enlazar direcciones de etherium a usuarios\r\n    mapping(address => User) private users; // trae el usuario\r\n    mapping(address => bool) private joinedUsers; // verifica si el usuario esta registrado\r\n    address[] total;\r\n\r\n    //function ingresa un nuevo usuario\r\n    function join(string memory name, string memory lastName) public {\r\n        require(!userJoined(msg.sender),'Error!, El usuario ya esta registrado');\r\n        User storage user = users[msg.sender];\r\n        user.name = name;\r\n        user.lastName = lastName;\r\n        joinedUsers[msg.sender] = true; // setea al usuario como registrado\r\n        total.push(msg.sender); // agrega el usuario al array total\r\n        emit onUserJoin(msg.sender,string(abi.encodePacked(name,\" \",lastName)));\r\n    }\r\n\r\n    //function llama al usuario y con ayuda del mapeo lo devuelve\r\n    function getAdress(address addr) public view returns(string memory,string memory) {\r\n        require(userJoined(msg.sender),'Error!, El usuario no esta registrado');\r\n        User memory user = users[addr];\r\n        return (user.name,user.lastName);\r\n    }\r\n    //function llama al usuario y con ayuda del mapeo sabe si esta registrado\r\n    function userJoined(address addr) private view returns(bool){\r\n        return joinedUsers[addr];\r\n    }\r\n\r\n    // Devuelve el valor de elementos del array total ( cantidad de usuarios registrados )\r\n    function totalUsers() public view returns(uint){\r\n        return total.length;\r\n    }\r\n}",
  "sourcePath": "C:/Users/user/Documents/proyectos/cursos/etherium/curso-ethereum/tema3/ethereum-truffle/contracts/UsersContract.sol",
  "compiler": {
    "name": "solc",
    "version": "0.5.8+commit.23d335f2.Emscripten.clang"
  },
  "schemaVersion": "3.0.16",
  "updatedAt": "2019-10-06T20:10:37.231Z",
  "devdoc": {
    "methods": {}
  },
  "userdoc": {
    "methods": {}
  }
}